:020000040000FA
:060000000A128A11F22F22
:100CDE008316031788018901831603138601850184
:100CEE000130870088018312031385018601880174
:100CFE008801F801F901F601F701F401F501F2019D
:100D0E00F301F001F1010800FA01FB01FC01FD0104
:100D1E000130FC070318FD0A0030FD077D08803AFC
:100D2E00FF0080307F02031D9E2EFF307C02031CCD
:100D3E00A12EA22E8F2E0130FA070318FB0A0030C7
:100D4E00FB077B08803AFF0080307F02031DB12E27
:100D5E00FF307A02031CB42EB52E8D2E08000A1217
:100D6E008A116F260A128A11F4300A128A118B2602
:100D7E000A128A1183120313071CC62EC72E272FA1
:100D8E00081470300A128A118B260A128A118312E5
:100D9E0003130810881470300A128A118B260A1257
:100DAE008A11831203138810081570300A128A11E3
:100DBE008B260A128A11831203130811202F831215
:100DCE000313871CEB2EEC2E052F0130F6070318AC
:100DDE00F70A0030F7077708F3007608F2000130C3
:100DEE00F0000030F1000A128A112C270A128A1123
:100DFE0088300A128A118B260A128A118312031363
:100E0E00071D0A2F0B2F202F0130F4070318F50AA8
:100E1E000030F5077508F3007408F2000A128A1103
:100E2E002C270A128A1188300A128A118B260A126E
:100E3E008A1178037904031D252F262FE62EC12E45
:100E4E000810C12E0A128A11002872037304031DA2
:100E5E00312F322F412F70037104031D372F382F7E
:100E6E003E2F831203130514F001F101412F83125B
:100E7E0003130614023072067304031D472F482F06
:100E8E00592F70037104031D4D2F4E2F552F023015
:100E9E00831203138500F001F101592F02308312E2
:100EAE0003138600033072067304031D5F2F602F39
:100EBE00712F70037104031D652F662F6D2F043083
:100ECE00831203138500F001F101712F0430831298
:100EDE0003138600043072067304031D772F782FD8
:100EEE00892F70037104031D7D2F7E2F852F0830EF
:100EFE00831203138500F001F101892F083083124C
:100F0E0003138600053072067304031D8F2F902F76
:100F1E00A12F70037104031D952F962F9D2F103056
:100F2E00831203138500F001F101A12F10308312FB
:100F3E0003138600063072067304031DA72FA82F15
:100F4E00B92F70037104031DAD2FAE2FB52F2030B6
:100F5E00831203138500F001F101B92F20308312A3
:100F6E0003138600073072067304031DBF2FC02FB4
:100F7E00D12F70037104031DC52FC62FCD2F403006
:100F8E00831203138500F001F101D12F403083123B
:100F9E0003138600083072067304031DD72FD82F53
:100FAE00F12F70037104031DDD2FDE2FE92F80302A
:100FBE00831203138500F001F1010130F8000030B7
:100FCE00F900F12F80308312031386000130F800F0
:100FDE000030F9000800F001F101F201F301F40113
:100FEE00F501F601F701F801F90183010A128A11E0
:020FFE00B62E0D
:04400E00F420FF3F5C
:00000001FF
